:020000020000FC
:100000000C9490070C942A000C942A000C942A005B
:100010000C942A000C942A000C942A000C942A00B8
:100020000C942A000C942A000C9465010C942A006C
:100030000C942A000C94E3020C942A000C942A00DD
:100040000C942A000C942A000C942A000C942A0088
:100050000C942A0018952E650D0017310E001F090B
:100060000F0001EE0F007FE0100067E1110097F133
:100070001200F61114007B4315002B8716001ADEC0
:1000800017006D4919005BCA1A0001010101010145
:100090000101010101010101010202020202020249
:1000A000020202030303030303030404040404051C
:1000B0000505050606060707070708080909090ACE
:1000C0000A0B0B0C0C0D0E0E0F1010111213131443
:1000D00015161718191A1C1D1E1F21222426272940
:1000E0002B2D2F313335383A3D3F4245484C4F5246
:1000F000565A5E62676B70757A7F858B91989EA564
:10010000ADB5BDC5CED7E0EAF5FF19191919191912
:100110001919191919191919191A1A1A1A1A1A1A48
:100120001A1A1A1B1B1B1B1B1B1B1C1C1C1C1C1D1B
:100130001D1D1D1D1D1D1E1E1E1E1F1F20202021DA
:100140002122222323242525262626272829292A59
:100150002B2C2D2E2F2F313233343637383A3B3D6E
:100160003F41424446484B4C4F515456595D5F62A3
:1001700066696D7075797D82868B90959BA1A7AD20
:10018000B4BBC2CAD2DAE2EBF5FF8763634D2C3C05
:10019000C92E6124491CFE151A114C0D570A0A0874
:1001A0004006DC04C803F0024902C70162011301E2
:1001B000D600A600810065004E003D002F002500FE
:1001C0001D00160012000E000A00000000010101CF
:1001D00001010202020203030303030404040405F1
:1001E00005050506060606070707070808080809A3
:1001F0000909090A0A0A0B0B0B0B0C0C0C0D0D0D4F
:100200000E0E0E0F0F0F10101011111212121313E9
:1002100014141415151616171717181819191A1A71
:100220001B1B1C1C1D1D1E1E1F1F202121222223E3
:10023000232425252627272829292A2B2B2C2D2D39
:100240002E2F303031323333343536373838393A6F
:100250003B3C3D3E3F3F4041424344454647484981
:100260004A4B4C4D4E5051525354555657595A5B68
:100270005C5D5F60616264656668696A6C6D6E7022
:100280007173747677787A7B7D7E808283858688A9
:100290008A8B8D8E9092949597999A9C9EA0A2A4F9
:1002A000A5A7A9ABADAFB1B3B5B7B9BBBDBFC1C30E
:1002B000C5C7C9CBCED0D2D4D6D9DBDDE0E2E4E7E6
:1002C000E9EBEEF0F3F5F7FAFCFF0F930FB70F939E
:1002D0001F932F933F934F935F936F937F93EF936E
:1002E000FF930F921F929398E091E300EFB9509122
:1002F000E90050FD0C94F801142D5091780052FF44
:1003000003C07091D7000EC07091D8000BC06091EF
:10031000D400653030F0E6E3F8E1E10FF61FC89550
:10032000102D22C06091D4006530C8F0E6E3F8E1FA
:10033000E10FF61FC895272F210F102DE6E3F8E1F6
:10034000E20FF61FC895222710192809170F281D3C
:1003500014F410E020E0222309F01FEF05C0171766
:1003600010F010E001C01FEF1058E091E200EFB96B
:10037000072D7091780076FD03C07091D8000BC0F6
:100380006091D500653030F0E6E3F8E1E00FF61F4C
:10039000C895002D22C06091D5006530C8F0E6E315
:1003A000F8E1E00FF61FC895272F200F002DE6E398
:1003B000F8E1E20FF61FC895222700192809070F58
:1003C000281D14F400E020E0222309F00FEF05C0FF
:1003D000071710F000E001C00FEF005867E81603A0
:1003E000F00167E70603E00DF11D8F010C94470251
:1003F000042D6091D60018E05091780052FD610FF5
:10040000660F1127000F181DE6E3F4E2E00FF11F5D
:10041000F60F25913491072D1127000F181DE6E3E3
:10042000F4E2E00FF11FF60F0591149100000000B7
:10043000000000000000000000000000E091E20069
:10044000EFB91595079535952795020F131F0000F5
:10045000000000000000000000000000000000009C
:10046000000000000000000000000000000000008C
:10047000000000000000000000000000000000007C
:100480000000000000000000000000000000939A3F
:100490001595079509191A0913F401E010E860E0B1
:1004A000409189005FEF541B569520E2520F651B67
:1004B00008F460E0492D5A2D3091E0002091DF00D2
:1004C000421B530B13F441E050E856039001469F42
:1004D000210D381D001C08F423958894220F331F2A
:1004E0008894220F331F9901020F131F13F40FEF8B
:1004F0001FE74091890014039001049F210D381DCE
:10050000001C08F42395920EA31E23F42FEF3FE75F
:10051000922EA32E3A2D292DE091DF00F091E000DC
:100520002E1B3F0B13F421E030E840918900340387
:100530009001249F210D381DE20FF31F13F4EFEFFC
:10054000FFE7E093DF00F093E0000E2F1F2F2091D4
:100550008A002F3F29F01203F001029FE10DF81DE0
:1005600013E09398F0580F2FEE0F001F111FEE0F9E
:10057000001F111FEE0F001F111FEE0F001F111F94
:100580001FB9102FEEECF0E00191200E0191301E0A
:100590000191401E0191500E0191601E0191701E4B
:1005A0001FB91F900F90FF91EF917F916F915F9115
:1005B0004F913F912F911F919498939A949A0F91F4
:1005C0000FBF0F9118950F930FB70F931F930CB197
:1005D0005798003F20F000E000936000EEC0002339
:1005E000F2F4102F107F103851F0103941F0103B09
:1005F00031F0103E21F010E010936000DEC0109347
:1006000060000F7003950093610010917A00112330
:1006100029F0101719F010E010936000CEC010916F
:100620006000103819F0113839F00AC01395109392
:10063000600000936200C1C01A951093600010C062
:10064000103919F0113939F03FC01395109360003B
:1006500000936200B2C01A9510936000002309F560
:100660000091620010916600011719F41FEF1093BA
:10067000660010916400011759F4109166001F3F45
:1006800041F010936400109365001FEF1093660013
:1006900094C01FEF1093640010E010939E00919A95
:1006A0008CC0009363001091640010936600109159
:1006B0006200109364001093650011E010939E0097
:1006C00010939F00919879C0103B19F0113B39F0BD
:1006D0005BC0139510936000009362006EC01A9582
:1006E0001093600010916200AF93BF93103320F01D
:1006F000103418F01035D0F03EC0AAE3B1E0A10FDD
:10070000B81D000F0C9310531770AEE8B0E0A10FA6
:10071000B81D0C91A6E9B0E0A10FB81D0C93ACE692
:10072000B0E0A10FB81D10E01C932BC0105417703F
:10073000A091780006FB103011F4A0F919C0113017
:1007400011F4A1F915C0123011F4A2F911C013303F
:1007500011F4A3F90DC0143011F4A4F909C0153037
:1007600011F4A5F905C0163011F4A6F901C0A7F9D6
:10077000A093780006C0AAE3B1E0A10FB81D000F56
:100780000C93BF91AF9119C0103E19F0113E39F092
:1007900014C0139510936000009362000EC01A9568
:1007A0001093600010916200110F110F001F00588C
:1007B000109367000093680000C01F910F910FBF56
:1007C0000F91579A189527B9369A0895349BFECF02
:1007D000349A04B115B116950795169507950895A5
:1007E000222331F02F93159507952A95E1F72F9144
:1007F0000895442341F04F93369527951795079513
:100800004A95D1F74F910895442341F04F93000F3B
:10081000111F221F331F4A95D1F74F910895379F1B
:10082000E001279FA001179FD001079F902DA10DE8
:10083000B41FC51FD81D369FA001169F900DA11D86
:10084000B41FC51FD81D269FA001069F802D910DA6
:10085000A41FB51FC81DD81D0A2F1B2F2C2F3D2FDD
:100860000895EE0FF0E0BB96EE0FFF1F0591159176
:100870002591359108956F937F93E72FF2DF802FB5
:10088000912FA22FB32FE72FE395EBDF081B190B56
:100890002A0B3B0B8F939F93AF93BF93762F60E010
:1008A0004F93BDDF4F91BF91AF919F918F91080FF3
:1008B000191F2A1F3B1F7F916F91089540E002C0CE
:1008C0007C5043957C30E0F70895EE0FFF1FE00F5A
:1008D000F81D04910895E00FF81DEE0FFF1F2591FC
:1008E00034910895069506950695E5ECF0E0F3DF62
:1008F00000271127089560E0702F703718F07039C5
:1009000038F00CC000E010E221E0E0E0F0E00BC0C5
:1009100008E011E220E0ECE8FFE605C007EB1DE18E
:1009200021E0E7E6F2EE30E07ADF0E0F1F1F0895B8
:10093000E199FECFBFB6F8942FBB1EBB0DBBE29A68
:10094000E19ABFBE0895E199FECFBFB6F8942FBBE0
:100950001EBBE09A0DB3BFBE089500937A0023E05A
:100960001FEFE6DF03E00093E8000FEF0093E600DF
:1009700000E30093E7000895002700936C000093C4
:100980006D0000936E0000936F0000937000009361
:100990007100009372000093730000918E00009329
:1009A000960000918F0000939700009190000093B3
:1009B000980000919100009399000091920000939B
:1009C0009A000091930000939B0000919400009383
:1009D0009C000091950000939D000895CCE6D0E026
:1009E000C40FD81D288120FD14C0302FC6E9D0E0E7
:1009F000C40FD81D1881311B0AF43195353038F0F9
:100A00002160CCE6D0E0C40FD81D288302C010E0DE
:100A1000089511E0089522271127E89401910032EA
:100A2000E9F30033D9F3005358F00A3048F442D0C8
:100A300036F0100F0191B8F72395A9F76894319714
:100A400008950F9206E0002E22271127E8940A94B9
:100A500091F001910032D9F30033C9F3005370F0E3
:100A60000A3060F427D056F0100F019110F423954E
:100A700029F00A9499F735970F90089531970F90C0
:100A8000689408950F922227112705E0002EE8941C
:100A900001910A3058F40ED04EF0100F10F4239547
:100AA00029F00A94A9F70F903597089531970F9080
:100AB000689408954F933F93422F312F110F221FB7
:100AC00048F0110F221F30F0130F241F18F0110FE0
:100AD000221F08F468943F914F9108951BD004E0C1
:100AE000302F0081002329F400E201933A95C9F7E1
:100AF00000813395005D019300813A95D9F73597D0
:100B00000895ECDF06E0302F3A9501910032E1F3D1
:100B1000319708952F931F9307E2402F00E1302F64
:100B200014D003E0402F08EE302F0FD000E0402F0C
:100B300004E6302F0AD000E0402F0AE0302F05D025
:100B4000108334971F912F9108950027241738F0B0
:100B500011F4131720F0131B240B0395F7CF019307
:100B60000895022F04D0012F02D0349708950F93D7
:100B7000029501D00F910F70005D0A3308F0095FF4
:100B800001930895E89407D02EF0202F04D016F09A
:100B9000102F349708950F9208D02EF00295002E52
:100BA00004D00EF000290F9008950191005350F0E9
:100BB0000A3050F0003308F0005207500A3010F0AD
:100BC000003110F03197689408950CB51DB520914F
:100BD000A0003091A100021B130B0A56184108F423
:100BE00054C030E02091780020FB30F940E3340F0E
:100BF0003093260130E030932701F1E0E6E280E017
:100C00000E943C0721FB31F9369540E3340F3093C5
:100C1000260130E030932701F1E0E6E284E00E9413
:100C20003C0722FB32F93695369540E3340F30937A
:100C3000260130E030932701F1E0E6E288E00E94EF
:100C40003C0723FB33F936953695369540E3340F50
:100C50003093260130E030932701F1E0E6E28CE0AA
:100C60000E943C071DE720E0F0E0E0E04ADF30E0D2
:100C70002092120130921301409214013093150119
:100C8000F1E0E2E180E40E943C07089581E00E94E7
:100C9000580784E00E94780708954D2E4C617374C4
:100CA00072692D4761727265746C61627320000015
:100CB00000004D6565426C697020416E6F6465008F
:100CC000284974616C69616E205374796C65207673
:100CD00031290000313520417072696C2032303189
:100CE0003600BB9ABA9AB99AB89A8E9A8D9A0E948F
:100CF00000078DE4809326018EE2809327018CE427
:100D00008093280181E68093290183E780932A015B
:100D100084E780932B0182E780932C0189E68093FE
:100D20002D0180E080932E0187E48093120181E6FB
:100D30008093130182E78093140182E78093150169
:100D400085E68093160184E7809317018CE68093F3
:100D5000180181E68093190182E680931A0183E7E6
:100D600080931B0180E080931C018DE48093FE0042
:100D700085E68093FF0085E68093000182E68093FC
:100D800001018CE68093020189E68093030180E7EC
:100D90008093040180E28093050181E48093060141
:100DA0008EE6809307018FE68093080184E68093A6
:100DB000090185E680930A0180E080930B0181E3BD
:100DC0008093EA0082E38093EB0087E38093EC005A
:100DD00080E08093ED00F1E0E6E280E00E943C07D5
:100DE000F1E0E2E180E40E943C07F0E0EEEF84E114
:100DF0000E943C07F0E0EAEE8CE50E943C07089573
:100E000084E60E9478079598969880E30E94600790
:100E10008AE00E94780780E30E94600788EC0E94C5
:100E2000860780E30E94600788EC0E94860788E2BC
:100E30000E94600780E50E94860788E20E945807AA
:100E400080E50E94860788E00E94580780E50E949E
:100E5000860781E00E94580784E00E94780786E0B8
:100E60000E94580780E50E9486078CE00E94580780
:100E700080E50E9486070895FF93EF9380680E94A3
:100E8000580780E50E9486078191803031F00E94EA
:100E9000500780E50E948607F7CFEF91FF910895F4
:100EA000959A96980E94600782950E94600708951F
:100EB000959896980E94600782950E946007089511
:100EC000C39A87FFC398C29A86FFC298C19A85FFCA
:100ED000C198C09A84FFC098969A0E948B079698F2
:100EE0000E948B0708950E947D072197E1F70895DE
:100EF0000E947D078A95E1F70895CF93DF93CBE9B0
:100F0000DFE02197F1F7DF91CF9108950E948B07E1
:100F10008A95E1F708958F938F918F938F9108951C
:100F2000F89400913400006804BF04BF0FE518E096
:100F30000DBF1EBF88242224332444245524662454
:100F400077249924AA2422273327EE27FF2705E0B8
:100F50000093CD0000E00093E8000093E9000093C7
:100F600078000093740000937A000093DA000093F5
:100F70009E0000939F0000938A000093A7000093B7
:100F8000A8000093A90000938C00009385000093B3
:100F90008600009387000093670000936800009329
:100FA0003B0100936A000093E10002E00093880097
:100FB0000FEF00936B000093DB0000938900009318
:100FC0006400009366000EE514EB26E70093BC0076
:100FD0001093BD002093BE0000E010E020E00093DD
:100FE000BF001093C0002093C1000FEF1FEF2FEF41
:100FF0000093C2001093C3002093C40024E1009327
:10100000C5001093C6002093C70024E60093C800D3
:101010001093C9002093CA0001E000936C00009374
:101020006D0000936E0000936F00009370000093BA
:1010300071000093720008E10093AE000FEF00937F
:10104000790000EB0093E30000E00093E20000E091
:101050000093B0000093B5000093A60000937B00BE
:1010600000937C000093690000936B010093710171
:1010700004E60093720100E00BBB00E00ABB0FEF37
:1010800008BB00E007BB00EB07BB00E50DB901E0C2
:101090000EB900E004BB0FEF05BB0EEF01BB00E093
:1010A00002BB919A01E30CBF0AE003BF04E00EBD4E
:1010B00009E103BD01E605BD00E000BD0FE109B98E
:1010C00000E90AB906E806B902E009BF7894209160
:1010D0008C0079DB23E01FEF36DC053008F000E000
:1010E00000937A000CB51DB50093A0001093A100E9
:1010F00003B300FD0CC001E00093E90003E000939E
:10110000E8000FEF0093E60000E30093E700C5DD81
:101110000CB51DB52091A0003091A100021B130B4E
:101120000A56184108F44BC003B310917400209183
:10113000790000FB20F904FB13F905FB12F906FB0B
:1011400011F907FB10F91093740020937900309186
:101150006B0030FF07C010937600109378003327A0
:1011600030936B000091740010917600011739F1F3
:1011700020917800102710FF02C000FB20F911FF1A
:1011800002C001FB21F912FF02C002FB22F913FF8A
:1011900002C003FB23F914FF02C004FB24F915FF6E
:1011A00002C005FB25F916FF02C006FB26F917FF52
:1011B00002C007FB27F92093780000937600009186
:1011C000E800033079F05091790050FD0BC001E048
:1011D0000093E8000FEF0093E60000E60093E700BD
:1011E0000027CADB0091E8000023A9F01091E60077
:1011F0002091E700101B2809222349F01093E600F4
:101200002093E70021FF919821FD919A04C0919AC3
:1012100000E00093E800DADA20918C0020938D0042
:10122000CEE8D0E0C20FD81D088323952770209305
:101230008C00C9DA40918D00403081F4CFDB11235E
:10124000A1F10093690000936A010091E800002376
:1012500061F1033051F104E080DB74C0413071F47E
:10126000BDDB112311F100936B010091E800002315
:10127000E1F00330D1F003E070DB64C04230B1F440
:10128000ADDB112351F000936C010091E8000023C5
:1012900021F0033011F002E060DB00916C012BDBE8
:1012A000105800937B0010937C004CC04330F1F445
:1012B00095DB112389F000936D010695069506953F
:1012C000069506950093D6000091E800002321F0D2
:1012D000033011F001E041DB00916D0106950A3009
:1012E00008F001C00AE00093D8002CC0443031F46B
:1012F00075DB112339F100936E0124C04530D9F418
:101300006DDB112311F000936F0100916F0130919B
:10131000780030FF08C03FEF30937F0030937E00AD
:10132000009380000FC030E030937F0000937E0078
:101330000093800007C0463029F450DB112311F0E0
:101340000093700100916300000F10917201019FE2
:101350001092AE006CB57DB5262F372F0091A200FC
:101360001091A300601B710B2093A2003093A30087
:101370006093A4007093A50000916B011091780018
:1013800013FF03C00C3D08F00CED0095ABDA609143
:10139000A4007091A50043DA3091B1004091B200F1
:1013A0005091B3005058F0E0E091B000EE23A1F46A
:1013B0006091C2007091C3008091C400300F411F42
:1013C000521F20F0361747075807C8F0362F472F0F
:1013D000582FE1E0F1E013C06091BF007091C000B0
:1013E0008091C100301B410B520B20F06317740732
:1013F000850728F0362F472F582FE0E0F1E0E093E3
:10140000B00050583093B1004093B2005093B300F5
:1014100000E010E020E0E0917800E4FF09C0FF2345
:10142000B1F00091BC001091BD002091BE002F775B
:101430000093BF001093C0002093C1000095109549
:1014400020950093C2001093C3002093C400009124
:10145000780004FF05C0FF2329F05091BE0000C0B2
:101460005093B40000916A0110913B01011718F4E8
:10147000012F00913B010093690004EB33DA609186
:10148000A4007091A500CBD93091B6004091B7006F
:101490005091B8005058F0E0E091B500EE23A1F46F
:1014A0006091C8007091C9008091CA00300F411F3F
:1014B000521F20F0361747075807C8F0362F472F1E
:1014C000582FE1E0F1E013C06091C5007091C600B3
:1014D0008091C700301B410B520B20F0631774073B
:1014E000850728F0362F472F582FE0E0F1E0E093F2
:1014F000B50050583093B6004093B7005093B800F1
:1015000050585093D7001091A600009170011130EF
:1015100069F000917E00123049F000918000143093
:1015200029F060917F00133039F13AC0DBD9609126
:10153000A4007091A50073D93091A7004091A80034
:101540005091A9006091A6006430D1F0623049F05A
:10155000300F411F521FF0F43FEF4FEF5FEF02E0FB
:1015600017C0301B410B520B78F060917F0065175C
:1015700088F003E00093A60033274427562F0AC0C3
:10158000301B410B520B30F430E040E050E000E003
:101590000093A6003093A7004093A8005093A900A1
:1015A00000919E00002339F404E01091A60011235D
:1015B00019F10093A60000919F000023E9F000E0DC
:1015C00000939F0000918800002319F00A95009372
:1015D000880001E00093A6000091780005FD0CC092
:1015E0000FEF1FEF2FE70093B1001093B20020938D
:1015F000B30001E00093B00090E060E070916500FE
:101600007F3F11F4B0C07C507136E8F701C0745FC1
:101610007432E8F37C5090918500A0918600B091DF
:10162000870000918800002381F5009171015AD94B
:101630006F937F93622F732F00E010E02091A4003E
:101640003091A50043E0D5D8EAD87F916F91302F33
:10165000412F522F90918500A0918600B091870074
:101660006A177B0738F4931BA40BB50B6A177B072B
:1016700050F006C0930FA41FB51F6A177B0718F41C
:1016800090E0A62FB72F6A2F7B2F90938500609351
:10169000860070938700009167001091680025E034
:1016A0009FD8202F312F020F131F020F131F600F1F
:1016B000711F70938B000091780003FD1FC0009193
:1016C000B4001091690020916B01203009F001C035
:1016D00010E0212F1695203810F01058120F01033A
:1016E000800124E07DD8600F711F77231AF460E039
:1016F00070E004C07D3610F060E07CE66F937F936D
:10170000972F9D5008F499279695969596959093C6
:10171000D400D4D8B0D878D81093CE002093CF007E
:101720003093D0007F916F9100917B0010917C00ED
:1017300024E056D8600F711F0091780094EF01FFEC
:10174000790F972F9D5008F4992796959695969521
:101750009093D500B3D88FD857D81093D100209349
:10176000D2003093D300E0E0F0E00091780003FF76
:101770000C94CC0B0091B400109169001A3B08F056
:101780001AEB20916B01203009F001C010E0010339
:10179000E12DF0E0111CFF0B0091A9001091AE00AB
:1017A000019F8001001FE11FF81D00916E011127AC
:1017B0000E0F1F1F112312F400E002C009F00FEFFB
:1017C0000695102FE5E4F0E080D800938900012F02
:1017D000E5E8F0E07AD803BD0091A900E5EEF0E07D
:1017E00074D800938A00E0E60E0F08F40FEF1BE0B8
:1017F000000F111F000F111F000F111F000F111FED
:101800001093E3000093E2000091BC001091BD0032
:101810002091BE0027FB30F922FB40F93427369592
:10182000001F111F221F0093BC001093BD002093C6
:10183000BE00CBD96DCC80121115161616181919C9
:101840001A1B1C1D1E1F202021222324252627278A
:1018500028292A2B2C2D2D2E2F303132333434359C
:10186000363738393A3A3B3C3D3E3F4041414243AE
:10187000444546474748494A4B4C4D4D4E4F5051C1
:10188000525353545556575859595A5B5C5D5E5FD5
:101890006060616263646566666768696A6B6C6DE7
:1018A0006D6E6F70717273737475767778797A7AFA
:1018B0007B7C7D7E7F808080818283848586868715
:1018C00088898A8B8C8D8D8E8F909192939394952D
:1018D000969798999A9A9B9C9D9E9FA0A0A1A2A33F
:1018E000A4A5A6A7A7A8A9AAABACADADAEAFB0B151
:1018F000B2B3B3B4B5B6B7B8B9B9BABBBCBDBEBF65
:10190000BFC0C1C2C3C4C5C6C6C7C8C9CACBCCCC78
:10191000CDCECFD0D1D2D3D3D4D5D6D7D8D9D9DA8A
:10192000DBDCDDDEDFE0E0E1E2E3E4E5E6E7E7E89B
:10193000EAEAEAEBEFEE80111015171516191919DE
:101940001A1C1C1D1E1F1F20222223242526262789
:1019500028292A2B2C2C2D2E2F303132333334359D
:1019600036373839393A3B3C3D3E3F4040414243AF
:10197000444546464748494A4B4C4C4D4E4F5051C2
:10198000525353545556575859595A5B5C5D5E5FD4
:101990006060616263646566666768696A6B6C6DE6
:1019A0006D6E6F70717273737475767778797A7AF9
:1019B0007B7C7D7E7F808080818283848586868714
:1019C00088898A8B8C8D8D8E8F909192939394952C
:1019D000969798999A9A9B9C9D9E9FA0A0A1A2A33E
:1019E000A4A5A6A7A7A8A9AAABACADADAEAFB0B150
:1019F000B2B3B4B4B5B6B7B8B9BABABBBCBDBEBF62
:101A0000C0C0C1C2C3C4C5C6C7C7C8C9CACBCCCD74
:101A1000CDCECFD0D1D2D3D4D4D5D6D7D8D9DADA87
:101A2000DBDCDDDEDEE0E1E1E2E3E4E4E6E7E7E79C
:101A3000EAEBE9EBF0EF801C161414141516181AD3
:101A40001B1C1D1D1E1E1F20212223242526272787
:101A50002829292A2B2C2D2E2F30313232333435A0
:101A6000363738393A3A3B3C3D3E3E3F40414243AF
:101A7000444546464748494A4B4C4D4D4E4F5051C0
:101A8000525253545556575859595A5B5C5D5E5FD4
:101A90006061616263646565666768696A6B6C6DE5
:101AA0006D6E6F7071727374747576777879797AF8
:101AB0007B7C7D7E7F808080818283848586878712
:101AC00088898A8B8C8C8D8E8F909192939394952C
:101AD000969798999A9B9B9C9D9E9F9FA0A1A2A33D
:101AE000A4A5A6A7A7A8A9AAABACADAEAEAFB0B14E
:101AF000B2B3B3B4B5B6B7B8B9BABABBBCBDBEBF62
:101B0000C0C1C2C2C3C4C5C6C6C7C8C9CACBCCCD72
:101B1000CECECFD0D1D2D3D4D5D6D7D7D8D9D9DA83
:101B2000DBDCDDDEDFE0E1E2E2E3E3E4E5E6E8EA98
:101B3000EBECECECEAE4800A0F1A15131919171AEA
:101B40001C1A1C1E1D1E2120212323232526262886
:101B500029292A2C2C2C2E2E2F3031313334343598
:101B6000373738393A3A3C3C3D3E3F3F41424243A9
:101B7000444546474748494A4B4C4D4D4E505051BD
:101B80005253535555565758595A5B5B5C5D5E5FCF
:101B90006061616263646566666769696A6B6C6CE3
:101BA0006E6E6F70717273747475767778797A7AF5
:101BB0007B7C7D7E7F7F8081818283848586868712
:101BC00088898A8B8C8C8D8E8F909192929494952B
:101BD000969797999A9A9B9C9D9E9F9FA0A1A2A33E
:101BE000A4A5A5A6A7A8A9AAABABADADAEAFB0B052
:101BF000B2B3B3B4B5B6B7B8B9B9BABBBCBDBEBE63
:101C0000BFC1C1C2C3C4C4C6C6C7C8C9C9CBCCCC76
:101C1000CDCFCFD0D1D2D2D4D4D4D6D7D7D8DADA88
:101C2000DBDDDDDDDFE0DFE2E3E2E4E6E4E6E9E799
:101C3000E7EDEBE6F1F680011B131519141C161CD9
:101C4000191C1D1C201D211F222223252427262884
:101C500028292B2A2D2C2E2E303031323234343696
:101C6000363738383A3A3C3C3D3E3F4040424243AA
:101C70004445464648484A4A4B4C4C4E4E505051BB
:101C80005253545456565758595A5A5C5C5D5E5FCD
:101C900060606262636465666668686A6A6B6C6DE0
:101CA0006E6E7070717273747476767778797A7AF2
:101CB0007C7C7D7E7F808080818283848486868711
:101CC00088898A8A8C8C8D8E8F909092929394952D
:101CD000969698989A9A9B9C9D9E9EA0A0A1A2A33E
:101CE000A4A4A6A6A7A8A9AAAAACACADAEAFB0B052
:101CF000B2B2B4B4B5B6B6B8B8BABABBBCBDBEBE63
:101D0000C0C0C1C2C3C4C4C6C6C8C8C9CACACCCC74
:101D1000CECECFD0D0D2D2D4D3D6D5D7D8D8DAD988
:101D2000DCDBDDDEDEE1DFE3E0E4E3E4E7E4EAE49C
:101D3000ECE7EBEDE5FF801A01181E11131D1B15D2
:101D40001A1F1B1A20211E1F242321242725252981
:101D500029282A2C2C2B2E2F2E2F32323233353598
:101D600035383938393B3C3B3D3F3E3F41424243A9
:101D7000454545474848494B4B4B4D4E4E4F5051BA
:101D80005152545555565858585A5B5B5C5E5E5ECE
:101D90006061616264646466676768696A6B6B6DE1
:101DA0006E6E6F71717173747475777777797A7AF3
:101DB0007B7D7D7D7F808080818383838586868710
:101DC0008989898B8C8C8D8F8F8F91929293959529
:101DD00096979899999A9C9C9C9E9F9FA0A2A2A23C
:101DE000A4A5A5A6A8A8A8AAABABACAEAFAFB0B14E
:101DF000B2B2B3B5B5B5B7B8B8B9BBBBBBBDBEBE63
:101E0000BFC1C2C1C3C5C4C5C7C8C7C8CBCBCBCD72
:101E1000CECECED1D2D1D2D5D4D4D6D8D7D7DBDB83
:101E2000D9DCDFDDDCE1E2DFE0E6E5E1E6EBE5E39E
:101E3000EDEFE2E8FFE680390B000D1D211B1313C7
:101E40001920211D1A1B202424212022262828267F
:101E500026282B2D2C2B2B2E313231303134363697
:101E6000353537393B3B3A3B3C3F40403F404244AD
:101E70004545454547494A4A4A4B4D4E4F4F4F50BD
:101E8000525454545456585959595A5B5D5E5E5ECB
:101E90005F61626363636466676868686A6C6C6DDF
:101EA0006D6E6F71717272737576777777787A7BF2
:101EB0007C7C7C7E7F80808081828484848586880F
:101EC0008989898A8B8D8E8E8F8F9192939394942A
:101ED00096989898999A9C9D9D9D9E9FA1A2A2A23A
:101EE000A3A5A6A7A7A7A8AAACACACACAEB0B1B14D
:101EF000B1B2B3B5B6B6B6B7B9BBBBBBBBBCBEC05F
:101F0000C1C0C0C1C4C5C6C5C5C7C9CBCBCACACC70
:101F1000CFD0CFCECFD2D5D5D4D3D5D8DADAD8D882
:101F2000DADEE0DFDCDCE0E5E6E3DFE0E7EDEDE58F
:101F3000DFE3F3FFF5C78051290E02030C172024BD
:101F4000221D1815161A2024262624212021242893
:101F50002B2C2C2B2A292A2C2F323333333231329B
:101F60003437393B3B3A3A3A3B3D3F4142424242A9
:101F700042434547494A4A4A4A4A4B4C4E505152BD
:101F800052515253545658595A59595A5B5C5E60D3
:101F900061616161626364666869696969696A6CE3
:101FA0006E6F7071717171727476777879797979F1
:101FB0007A7C7D7F8080808080818384868787870C
:101FC0008788898A8C8E8F8F8F8F90919294969725
:101FD00097979797989A9C9D9E9F9F9F9FA0A2A43A
:101FE000A5A6A7A7A6A7A8AAACADAEAFAEAEAFB048
:101FF000B2B4B5B6B6B6B6B6B7B9BBBDBEBEBEBE58
:10200000BEBFC1C3C5C6C6C6C5C5C7C9CCCECFCE67
:10201000CDCDCDCED1D4D6D7D6D5D4D4D5D8DCDF7E
:10202000E0DFDCDADADCE0E6EAEBE8E3DEDCE0E99C
:10203000F4FDFEF2D7AF8061442B180B0403060CAD
:10204000141C2226282725221E1C1B1B1D21242888
:102050002B2E2F2F2E2C2B2A2A2B2C2F3134363897
:1020600039393938373737383A3C3E4042444445AD
:1020700044444444444547484A4C4E4F50505050C5
:1020800050505152535557595A5B5C5C5C5C5C5CD8
:102090005D5E606163656667686868686869696BEA
:1020A0006C6E707173747474747475757677797AF4
:1020B0007C7E7F808080808080808182848687890A
:1020C0008A8B8B8C8C8C8C8C8D8F9092949597971F
:1020D0009898989898999A9B9D9FA0A2A3A4A4A42D
:1020E000A4A4A4A5A6A7A9ABADAEAFB0B0B0B0B044
:1020F000B0B1B2B4B6B8B9BBBCBCBCBCBCBBBCBC58
:10210000BEC0C2C4C6C8C9C9C9C8C7C7C7C8CACC67
:10211000CFD1D4D5D6D6D5D4D2D1D1D2D5D8DCDF73
:10212000E3E5E5E4E2DEDBD9D8DADEE4ECF4FAFD5F
:10213000FCF5E8D5BC9F806D5A49382A1E140C085E
:10214000050506090D12181D22262A2C2E2F2E2DCC
:102150002C2A2927262524252627292C2F313437D8
:10216000393B3C3D3D3D3D3D3C3B3B3B3B3B3C3DB2
:102170003F41434547494B4D4E4F4F505050504FB4
:102180004F4F4F505052535456585A5C5E5F6062E6
:1021900062636363636363636364646567686A6BF4
:1021A0006D6F7172747575767677777777777777E5
:1021B00078797A7B7D7F8081838586878889898904
:1021C000898989898A8A8B8B8C8E8F919395969831
:1021D000999B9C9C9D9D9D9D9D9D9D9D9E9EA0A12E
:1021E000A2A4A6A8AAACADAEB0B0B1B1B1B1B0B026
:1021F000B0B0B1B1B2B3B5B7B9BBBDBFC1C3C4C54F
:10220000C5C5C5C5C4C3C3C3C3C3C4C5C7C9CCCF73
:10221000D1D4D7D9DADBDCDBDAD9D7D6D4D3D2D153
:10222000D2D4D6DADEE3E8EEF3F7FAFBFBF8F4EC0F
:10223000E2D6C8B7A6938074685B50453A3128202F
:102240001A140F0C0A080808090B0E1114181C2088
:1022500023272A2E3033353638383939383837364F
:1022600036353433323232323333343537393B3D1D
:102270003F414345484A4C4D4F505152535353539D
:10228000535353535352525253535454555658590F
:102290005B5C5E6062646667696B6C6D6E6F7070CC
:1022A000717171717171717171727272737474760E
:1022B00077787A7B7D7F808183858688898A8C8CFC
:1022C0008D8E8E8E8F8F8F8F8F8F8F8F8F9090911F
:1022D0009293949597999A9C9EA0A2A4A5A7A8AA28
:1022E000ABACACADADAEAEAEADADADADADADADAD1F
:1022F000ADAEAFB0B1B3B4B6B8BBBDBFC1C3C5C757
:10230000C9CBCCCDCDCECECECECDCCCBCACAC9C812
:10231000C8C7C7C8C8CACBCDD0D2D6D9DDE0E4E89B
:10232000ECEFF2F5F7F8F8F8F6F4F1ECE6E0D8CFD8
:10233000C6BBB0A5988C80776E655D544C443C3527
:102340002F29231E1A1613100E0C0B0B0B0B0C0E41
:10235000101214171A1D202326292C2F3235373A34
:102360003C3D3F404243434444444444444343424D
:102370004241414140404040404141424344454642
:1023800048494B4D4F51535557595B5C5E606263F2
:102390006566676869696A6B6B6B6B6B6C6C6B6BA2
:1023A0006B6B6B6C6C6C6C6D6D6E6F70717273754A
:1023B0007678797B7D7F8081838587888A8B8D8EF7
:1023C0008F909192939394949494959595959594D8
:1023D00094959595959596979798999A9B9D9EA07B
:1023E000A2A4A5A7A9ABADAFB1B3B5B7B8BABBBCF2
:1023F000BDBEBFBFC0C0C0C0C0BFBFBFBEBEBDBDF1
:10240000BCBCBCBCBCBCBDBDBEC0C1C3C4C6C9CBCA
:10241000CED1D4D7DADDE0E3E6E9ECEEF0F2F4F584
:10242000F5F5F5F4F2F0EDEAE6E2DDD7D1CBC4BC88
:10243000B4ACA39B9289000000010002FF02FF03DD
:10244000FF040006FF060108FF08000A000B000C4D
:10245000000D000E000F0010FF1000120013FF13FC
:1024600000150016011700180019001A001B001CA7
:10247000001D001E011F0020002100220023002457
:1024800000250026002700280029FF29002BFF2B0C
:10249000002DFF2DFF2EFF2FFF30FF31FF320134C3
:1024A000FE340136FD360238FC38033AFB3A043C70
:1024B000FA3C053EFA3E0740F8400642F942054420
:1024C000FB440346FE4600480149FA49084BF24BDB
:1024D000104DEA4D1B4FE04F2451D5512F53CB5394
:1024E0003655C4553C57C1573D59C359385BCC5B31
:1024F0002A5DDE5D155FF85FF6601C62CD624864A0
:102500009D647D666666B5682C68EF6AF469266D21
:10251000C06B526F9B6D7071886F767391715A7535
:10252000C3730F772C768078ED787B79517C807936
:10253000FF7F2976FF7FA0CB0180418E0080BD8A7E
:102540000080798A4C83168B7686158C57894D8D41
:10255000098CAF8E948E3590FF90D8914D939793C0
:1025600081956E95A0975A97AA995899A69B629BB8
:10257000979D749D809F8E9F66A1A9A14BA3C4A324
:102580002FA5DEA519A7F4A706A903AAF7AA0FACE1
:10259000EDAC18AEE8AE1BB0E6B01BB2E7B21AB4B1
:1025A000E9B416B6EEB612B8F2B80DBAF6BA09BC6E
:1025B000FABC05BEFDBE03C0FFC001C202C300C419
:1025C00002C5FEC502C7FFC703C9FFC902CBFFCBC7
:1025D00002CDFFCD01CFFFCF01D1FFD101D300D478
:1025E00001D500D601D700D800D900DA00DB00DC25
:1025F00001DD00DE01DF01E0FFE000E201E300E4D5
:1026000000E500E600E701E800E900EA00EB00EC85
:1026100000ED00EE00EF00F000F100F201F301F434
:1026200000F500F601F700F800F900FA00FB00FCE5
:1026300001FD00FE00FFA200D60209053F07780950
:10264000AF0BE90D231060129914D7161619551BFC
:10265000921DD51F142256249626D9281A2B5E2D9A
:10266000A02FE7312A346F36B438FB3A3E3D853F20
:10267000CC4110445A469E48E74A2D4D774FBB51F6
:10268000075449569758D95A285D675FB861F8636F
:102690004B668968DC6A1B6D6D6FAC7100743F76A8
:1026A0009278CD7A3C7D2D7E496E8A51E83A622D32
:1026B000A6251A21B11E6C1D001DFF1C5E1DE91D03
:1026C000A11E771F5D205F2166228E23AD24F12598
:1026D0002A278928D7294C2BAE2C382EAF2F4B31E7
:1026E000D63280342136D7378D394A3B193DD83E12
:1026F000BD4081427E4440465548144A3F4CFB4D04
:102700003F50F5514F54FE556C58195A985C425E33
:10271000CD60746216655366EA596D49E52E3C1525
:1027200001FFA5EC91DFE9D485CD41C730C396BF49
:1027300082BD8EBBADBAC1B999B959B9A2B9D4B9E4
:1027400062BAE3BA9EBB57BC2EBD10BEFDBEFFBF32
:10275000FDC017C223C352C46EC5ACC6D4C721C9BD
:1027600057CAB0CBF6CC55CEA7CF12D172D2E5D393
:1027700053D5CBD645D8C7D94EDBD4DC67DEF3DFE3
:1027800092E128E3CFE46BE61BE8BDE976EB21EDAF
:10279000E3EE93F05DF215F4E4F5A3F77AF93FFB6D
:1027A0001CFDE4FEE000650114F1EFD3E5BC01AFD0
:1027B000E3A6FBA1369F999DD59C819C919CCB9CC7
:1027C000399DBD9D619E169FE29FBBA0A5A1A0A2C1
:1027D000A6A3BDA4DDA50EA747A88EA9DFAA3FAC7E
:1027E000A4AD15AF8FB016B2A0B339B5D5B67DB8CC
:1027F0002ABAE1BB9DBD61BF29C1F9C2D1C4ABC634
:102800008EC872CA5ECC4ECE43D03CD239D439D6B3
:102810003ED847DA53DC61DE74E08AE2A2E4BEE629
:10282000DAE8F9EA1BED40EF66F18EF3B8F5E4F76C
:1028300012FA42FC72FE0000FF7FF475FF7F607B9E
:10284000FF7F817DFF7FB57EFF7F7D7FFF7FFF7FE5
:10285000C57FFF7F7A7FFF7F4D7FFF7F397FFF7FBF
:10286000397FFF7F477FFF7F5E7FFF7F7B7FFF7F1B
:102870009B7FFF7FBB7FFF7FD77FFF7FF07FFF7F47
:10288000FF7FF37FFF7FE87FFF7FE07FFF7FDE7FBB
:10289000FF7FDE7FFF7FE27FFF7FE77FFF7FEE7FAF
:1028A000FF7FF37FFF7FF97FFF7FFD7FFE7FFF7F4D
:1028B000FC7FFF7FFB7FFF7FFA7FFF7FFC7FFF7F37
:1028C000FF7FFE7FFF7FFA7FFF7FF47FFF7FED7F3B
:1028D000FF7FE87FFF7FE37FFF7FDF7FFF7FDD7F7D
:1028E000FF7FE07FFF7FE77FFF7FF27FFF7FFF7F3C
:1028F000EF7FFF7FD77FFF7FBA7FFF7F9A7FFF7FCA
:102900007B7FFF7F5E7FFF7F467FFF7F397FFF7F7B
:10291000397FFF7F4E7FFF7F7A7FFF7FC47FFF7FFE
:10292000FF7F7D7FFF7FB57EFF7F817DFF7F617BA6
:10293000FF7FF475FF7F000001800C8A00809F8478
:1029400000807F8201804C81008083800080008035
:102950003C80008086800080B2800080C78000803C
:10296000C7800080BB800080A280018085800080BD
:102970006580008045800080298000801080008074
:1029800000800E8000801A8000801F8000802280DE
:102990000080228000801E800080198000801380CB
:1029A00000800D800080078000800280018001800F
:1029B0000480008006800080058000800580008003
:1029C000018002800080078001800D8000801280DD
:1029D0000080188000801D8000802180008022807F
:1029E00001801F800180198000800D8000800080A0
:1029F000118000802A8001804580008065800080F1
:102A000085800080A2800180BA800080C78000801D
:102A1000C6800080B2800080868000803C8001807B
:102A20000080828001804C8100807F8200809F84B2
:102A300001800C8A00800F02D6148625FB32093EE5
:102A40005646A64CC85064533454A4535651774D3F
:102A50008A478A3FF534C727A317CC0458EF20D8FC
:102A600015C0FFA8D694518623801785029749B6D2
:102A7000F8DF040EF03B3D60F3713E6CF94EB21E80
:102A8000EEE42CAE05899D81F19E92DAE920C55BCA
:102A9000ED72AD5CE621DCD65E980F80179E57E79D
:102AA000CE39EF6DB467E32BA3D704932B8256B3D3
:102AB000770C2F5BB0717A435EED3F9D87805EACF3
:102AC000AB07445A80718940EEE7E698698150B3BC
:102AD00027100B5F2570263C6EE4439822813BAFA4
:102AE0000B071057B672E34D72006FB01A83E68E73
:102AF000F2CEA321B361DF715E4FE10C38C4C38F06
:102B0000B780129DECD84F1D11569471B56A0948D3
:102B10005E14E9DC92AC4A8C44808D899FA4D5CBAD
:102B200058F6F61E8A42C95CAC6CCA72C970A568B8
:102B3000605CC64D543E302F3221E1149C0A950250
:102B4000E3FC91F9A0F811FAE5FD18049E0C60175A
:102B50001E247E32D44140517C5FF56AC571D77125
:102B600032695556FF381D134FE987BEF699F58334
:102B7000B8816595CDBCBCF1F429F1585371556904
:102B8000243E4AFC2BB8D78850833AA994ED7E376F
:102B9000106A336D8E3993E67B9B1E801CA368F10F
:102BA0006D447071F45A4A0AD9AE7E80B89C6BEFBE
:102BB0005348A072CE4ECDF1B199FF8165B9651829
:102BC000B764CA6AAA22E4BD4682C69863ED544936
:102BD000BC72EC4AA4EB0C960D83CCBB7618EB626E
:102BE0009F6D9C2FC9D0E88AB887D1C3F41A6B6057
:102BF000BF709841A2EDC7A00080D198AED99126B0
:102C000075608072C554E0142FCD32951C8093906E
:102C100036BDCDF70331605C63711E6DCA518F26DE
:102C200073F6D0C8E8A2B38A7A805E831F9029A485
:102C300011BCC1D5B1EE66163B502F4F4D5F796088
:102C4000D46ABD6CFD74D377A77F6F7FFF7F9B7FB6
:102C5000FF7FCF7FFF7FF87FF47FFF7FDA7FFF7FEB
:102C6000C97FFF7FC17FFF7FBE7FFF7FC07FFF7F68
:102C7000C87FFF7FD17FFF7FDB7FFF7FE67FFF7F06
:102C8000EF7FFF7FF87FFF7FFF7FFC7FFF7FF87F75
:102C9000FF7FF57FFF7FF47FFF7FF47FFF7FF77F6C
:102CA000FF7FF87FFF7FFA7FFF7FFC7FFF7FFE7F44
:102CB000FF7FFF7FFE7FFF7FFC7FFF7FFC7FFF7F2B
:102CC000FD7FFF7FFE7FFF7FFE7FFE7FFF7FFA7F1E
:102CD000FF7FF87FFF7FF47FFF7FF07FFF7FEC7F38
:102CE000FF7FE97FFF7FE87FFF7FE97FFF7FEC7F4A
:102CF000FF7FF47FFF7FFD7FFB7FFF7FEC7FFF7F08
:102D0000DB7FFF7FC77FFF7FB27FFF7F9E7FFF7FDD
:102D10008B7FFF7F7E7FFF7F787FFF7F797FFF7FC5
:102D2000887FFF7FC07B92769471F06B5167855FDF
:102D30000B5B964DC04939EAFFAFF3B0D6A0999F1F
:102D400019952993F28A11884780908000806380CA
:102D500001802F80008007800D8000802780008008
:102D60003780008041800080438001803F80008068
:102D7000398000802F800080258000801B800080AB
:102D8000108001800880018001800480008008801C
:102D900000800B8000800C8000800B8000800B8006
:102DA000008008800080068000800480008002800F
:102DB0000180008003800080038000800480008008
:102DC00004800080038001800280038000800580F1
:102DD0000080088000800C800080108000801480BB
:102DE0000180168001801780008017800080148089
:102DF00001800D80018004800480008013800080A9
:102E000025800080388001804D80008062800080B5
:102E100074800080828000808980008088800180AA
:102E20007A80008059847289548EFD93A1985EA0A7
:102E3000D4A45FB295B687027907990C9911BD1693
:102E4000B11BB7208225622AF02E8733CD370F3C85
:102E50001040F643AC47334B9D4EC351F754B65721
:102E6000B65A125DE45FE26191643666C068136A27
:102E70007A6C866DC56F9B70AA725B732D75D17568
:102E8000537700781B79F279957AA87BB87B2C7DF3
:102E9000937C7A7E267D967F787DFF7F907DFF7F75
:102EA000FC7C787F37796F7C4975517929718276FE
:102EB0006C6CAC750559419D8B89F091848B879121
:102EC000368C9791E78CE091D68D5492FA8EF092E1
:102ED0005690C693ED91CE94B4931B96B595A99751
:102EE000EB9785995A9AB59B0B9D399EFC9F16A12D
:102EF00031A35CA4BBA607A89DAA15ACDFAE9DB00C
:102F000090B39CB5B2B812BB51BE10C178C490C783
:102F10001ECB8ECE4ED211D6FCD9FDDD05E23EE6AB
:102F200061EAB3EEDAF223F737FB66FF4D0343079E
:102F3000CA0A040E14111914F816BC195E1CE41EFA
:102F400052219E23D425E627E229C42B922D442F1B
:102F5000DD306632CE3333356A36AC37B138D639E8
:102F6000AF3AB93B633C513DD63DAE3E103FCD3FFD
:102F70001140B140E64061418D41E3410E4236428D
:102F80006B426342AA426B42CE424D42D24217424A
:102F9000C242C54191425D415042E740F3415A402F
:102FA0008441B93F1741D93E3B41E138442C0730B9
:102FB000632FB2327F31E535F932023A6132534341
:102FC00074FA87B6B5C501BB29C014BA5BBC4FB84B
:102FD00021B953B62BB632B468B313B2DAB0FBAF33
:102FE00077AEF0AD4BAC01AC58AA3CAAA2A8A7A8FA
:102FF00036A74FA719A646A65CA59CA506A55FA562
:1030000029A5ABA5DEA592A633A72AA846A995AA0D
:1030100033ACECAD17B04FB211B5E1B743BBB0BEA6
:10302000C2C2DDC6A2CB73D0D6D557DB61E17BE748
:103030000FEE9BF4A3FBE7014F053206AE05A20598
:10304000B406460867099D0AA90CE10F72146E1AAE
:10305000FF20FE26152C4B31BF37DC3EDD44BC493A
:10306000CE4FE458D7639C6D9474BF79247EFF7F64
:10307000CD7CCA735C68D65E4D594D577A58895DD0
:10308000D565896DDA6FAB6B06650B61A760636010
:10309000C55C7F558A4C71437B3AD131452ABB24AC
:1030A000B4214C21EE222725462661259B22761E3F
:1030B0008D1937155C1387149C162316D810320708
:1030C000E0FB2BF274EC0DEBFBEBC4EC97EC5CEC4F
:1030D0007EECD0EB2EE983E52AE381E32BE682EA5E
:1030E00047F055F6F1F97AF861F27CEBF8E7C1E8C0
:1030F00019EB35EB5BE7C8E0C3D9B5D36BCF98CEFE
:1031000063D3D9DD26EAB6F23CF464EFF3E646DD9C
:10311000AAD3F4CAB7C3E5BDEEB841B4B0AFAFAB04
:1031200078A97BAA18AF29B6F3BD44C51ACB08CE3F
:10313000E1CC5CC89BC217BDC7B7AEB2F4AE77ADE9
:1031400049ADE8ACCCAC2AAF38B506BE30C836D3F2
:1031500060DE57E788EBA8EAFFE616E338E00CDF0D
:1031600078E02CE597ECD6F4CCFB5700E4022A0576
:10317000BF08A10D3D12FB147D156F14B612151179
:103180004F10DF10C212D315EF19461E2521412121
:103190001A1F761C731AF218D917B117361886172A
:1031A000EF132E0EF2084206EC058306E0068106B8
:1031B0008505E104A505A9074A09B1082A0539FFD3
:1031C000E4F78EF0BEEA00E763E401E287E069E13C
:1031D000DEE47EE9E6ED78F121F32FF1CAEB22E699
:1031E000CEE31BE551E772E873E9EDEB50EF98F1A0
:1031F000DBF1E5F0B5EF43EE45EC8DEA6FEAF7EB76
:1032000072EDFFECDFEAFAE907ED39F3A5F821FAF0
:10321000D5F766F4CEF140F099EF0EF0A0F09BEFF9
:10322000D2EC65EA99EA4CED0DF078F175F2ACF369
:10323000FBF48EF799FC1B00A20247055808D40B3B
:103240000E10C814101AD41F7626902D3934BE3AA9
:10325000E740AF46874C0F51E554925A7B5E33628C
:103260002966B467546AE66E617398758E769078B5
:103270002E7BBC7DAF7E617FAC7FD077D4685F54FE
:10328000C43CE02666132E0499F8DDF260F357F48F
:1032900078F3FEF6CEFEB90219021001E9FFEFFB4A
:1032A00078F3F0E7B4DC67D264C92AC1BBB966B56C
:1032B00035B2C4AC54A5739F999C679B509A1B9BD5
:1032C000899F16A401A7B7A993AEA1B618C0ECC8F0
:1032D0009DD1F7DABCE21DE78BE91CECEFEF1BF3A5
:1032E00008F4FAF43DF60FF762F7D7F7B7FA98004B
:1032F00084084511B41B95272C324E3A2F40CB45FC
:10330000BC4B23511356555A565D295EED5B9F57B2
:10331000D3521D4E25493244913F003B9E367232B6
:103320001B2F2A2D712CDB2C9A2D262E6E2EC12DB3
:103330006F2B78277222A41C6A160C10150AAB0496
:10334000C3FE00F897F084E85BE07DD864D176CBCB
:1033500084C672C223BF9DBCFABA55BA97BAF6BBEF
:10336000C0BE2BC25EC554C8F7CA0CCD41CEA2CE9A
:103370009ECE52CEC2CDC5CC7BCB77CAFEC908CA81
:1033800036CB68CEA5D350DAC9E1D7E92DF219FAC8
:103390004F0117089C0EC4143D1AC61E6222F72462
:1033A0009E268227C227B527C127CA27A927D0274B
:1033B000FD274C28B7287829F72A1B2DA12FF43197
:1033C000F03380355C362B364935D733FB318E2FC1
:1033D0002B2C4427BC1FFF15FA0B9302B7F913F2ED
:1033E000C3EA42E33DDDF7D85AD571D29AD060CF17
:1033F0007CCEECCDBCCD2FCD73CB03C92CC79FC5E4
:103400002BC444C3EEC1C1BF72BD9EBBCAB9FCB7D9
:1034100026B733B795B7DBB85CBBD5BEEFC2DAC70A
:10342000D9CD79D47DDB41E2CFE783EC0AF1D2F448
:10343000ECF7CCFA77FD35CAAD214D7D8572657408
:10344000C676C8708F7C9142991C5826712137240A
:10345000A0227123222310235F23DF227A23C62296
:103460008223C0227C23C2226C23CD225823DA225D
:103470004123E8222A23F6221423022300230A23CD
:10348000F0220E23E4220E23DE220923DC22002375
:10349000DF22F022E422DF22EE22CB22FB22B52221
:1034A00008239D22142387222023752226236822A5
:1034B000262363221E23692208237B22E222A122E3
:1034C000AA22DC2259223523E221B6233A217A248A
:1034D0003420D425261EAB293D0E39F86E0914E997
:1034E00048F9CEFE1CEEA4F6AD0780F70BF6410BB3
:1034F00035F04CF40BF9AB02D7FE21E9BBFF87F99D
:10350000DAEB54008B036FF3B4FD0F0867E8F1FEAC
:103510005625AF20E6237D214923FB21E0224C22C2
:103520009A2280226E229A2259229E22562292228A
:1035300062227A227822572296223122B3220A224C
:10354000CF22EA21E522D321ED22C921E422D32191
:10355000C422F821842244221922C2228021CE22B0
:10356000B9F6A8FECDEE7FF4EC09EAF3C1F907063F
:10357000E4F576ECAD029BF238EF050491FF1FF104
:103580001605F0DA27ECC0FB44F917093EE9A9F863
:1035900061FD37F128EE30DFCDCB38D353CF76D174
:1035A00068D0C0D0EFD067D035D13CD059D12DD024
:1035B00067D131D066D142D05CD15BD04CD178D0CC
:1035C00038D197D024D1B7D012D1D4D002D1EDD0F8
:1035D000F7D003D1EFD015D1ECD023D1EDD02DD140
:1035E000F1D034D1F8D039D1FED03DD108D140D17D
:1035F00014D143D11FD144D129D145D135D146D1A0
:1036000042D146D14DD146D15BD146D168D145D1C9
:1036100075D145D17ED14ED17DD167D162D1ACD1AA
:10362000F5D088D240CF32D7DBA700804287008018
:103630000B860080F185230FE81EF22A19393742E4
:10364000AF3ED6407A3F3A40D73F522D3E2A4D2AD0
:10365000272C5A1D63134916DE140A15350206FF7E
:103660000501A5FE3902D2F7A7E9E7EACFEA50EA59
:1036700036EBFCE986EB9AE93BEC81E652D52ED598
:103680009CD502D5AFD5FED4ACD508D59AD51ED5DC
:1036900080D53DD55BD568D527D5AAD5CAD445D622
:1036A0006DD370E0DEEC6BE995EBEAE95FEBF3E9F3
:1036B00087EB65E965EE0D0029008AFFE60016FE3E
:1036C000B70C1D17B21405158024CD2C3E290B2CE8
:1036D000593CD2416E3E9941153EE3421234FA29DB
:1036E000D01968FF86D943B441A9308F008031805A
:1036F000078001805680008037927295359A02AE1D
:1037000065A729BC63BF2EC4C9D57DD56FD474E528
:10371000C1EB45ED390343FCD60F4B1408209D2C1B
:10372000662A703E9440383F73410532BA22B30690
:1037300055D7A4B3E396838601804C8100804581F0
:1037400000804F90DA954F9899AC71A809B758C28C
:10375000B4BD8DC544D534D657D384DDE0EBD1EA72
:103760001FE9B4F5FC0158FF7BFFA70D0C18F01200
:10377000281B752BE629AE2BC6283736E041F53ECF
:10378000B240773F6D409D3F5C40983F7E40393F5F
:103790009341D7325628402C4529162CFF28262D38
:1037A0000822F213CF1535153C159B15D41430168D
:1037B0009213041EF42C4529C62BA229C92B2229B9
:1037C000EA2E5240E33FF83F1740DA3F2A40CB3F12
:1037D0003840BB3F5140873FD0408F2FF0280C2C02
:1037E0002229F92CB21B44146E15D615C8033FFFCD
:1037F000E0FF48018DF40AE86AEC31E908EC7AD779
:103800008BD570D449D745C850BE8FC087C0FBB98F
:1038100086A79EAD93A28A934197B98D0180558169
:103820000080E5800180F08000802C854B98FEA60A
:1038300054BA59D193F5FD2C5B45D33C4842333EF5
:103840007741C33E0A411B3FC240583F8E40873FED
:103850006440AB3F4440C83F2940E03F1440F33F41
:1038600001400740EF3F1A40DA3F3040C33F494034
:10387000A93F65408B3F8540693FA640473FC84010
:10388000273FE6400B3FFE40FA3E0841F73E01412C
:103890000A3FDF403B3F9B40983F1F403A404B3F31
:1038A0005C41AF3DD0436039C44D6ABD0080728930
:1038B0000080128501804B830080388200807581F2
:1038C0000080E1800080708000801B800880008084
:1038D0003B8000805A800080678000806980008083
:1038E00060800080538000804480008036800080AB
:1038F0002B800180298000802E8000803A8000800B
:10390000508001806D80008092800080C0800180A6
:10391000F680008044810080E88100804888D6BE1F
:1039200080C06EBFAAC04ABFC2C03DBFC3C046BFB1
:10393000B0C061BF8BC092BF4FC0E0BFEABF64C0E0
:103940002EBF90C1C2BC48CC2F0218FFF2FF11015C
:1039500072FDA805049E008040850080F8820080EA
:10396000108200808A8100802B810180E1800080AC
:10397000A08000805C80008000804E80008002B6C5
:1039800039C3FBBD91C1AEBE30C1E8BE0AC100BFA4
:10399000FCC008BFFCC002BF07C1F1BE22C1CBBE44
:1039A0005AC170BEFFC1E9BC62C9F2FFE3FFEAFF82
:1039B0003C00A9FF6B0084FF8A0068FFA6004CFF53
:1039C000C3002AFFEC00F8FE2E019FFEAF01D1FDDF
:1039D000220366FAA8166645303DCE41B93EEA405C
:1039E000573F6F40C13F0D402140A93F8F402C3FC2
:1039F0002441763E0E42333DF543DC39C14B54073A
:103A00005AB3EEC62EBBE1C336BC57C7EDFC2B0143
:103A10003FFF8500A8FF3300EAFFFDFF1600DEFF31
:103A20002B00D3FF2900E3FF09001700BBFF8D0027
:103A3000FFFEDE01F6FB3F05324C354D6E5CFD5E50
:103A4000B168F26B8F73BD77137FDC7FFF7FF57FEB
:103A5000F87FFF7FDA7FFF7FC57FFF7FBA7FFF7F21
:103A6000B67FFF7FB97FFF7FBF7FFF7FC97FFF7F6B
:103A7000D57FFF7FE17FFF7FEB7FFF7FF57FFF7FBC
:103A8000FD7FFE7FFF7FF97FFF7FF57FFF7FF37F65
:103A9000FF7FF37FFF7FF47FFF7FF57FFF7FF87F5E
:103AA000FF7FF97FFF7FFB7FFF7FFD7FFF7FFE7F33
:103AB000FF7FFE7FFF7FFF7FFF7FFE7FFF7FFD7F1A
:103AC000FF7FFD7FFF7FFC7FFF7FFB7FFF7FF97F15
:103AD000FF7FFA7FFF7FFA7FFF7FFB7FFF7FFD7F06
:103AE000FE7FFF7FFA7FFF7FF57FFF7FEE7FFF7F07
:103AF000E67FFF7FE07FFF7FDA7FFF7FD57FFF7F5D
:103B0000D47FFF7FD67FFF7FDD7FFF7FEA7FFF7F50
:103B1000FC7FF57FFF7FD87FFF7FB67FFF7F8C7FA5
:103B2000FF7F5D7FFF7F217FFF7FCB7C117AF37367
:103B30000172086BFA688860D15D3E52D24D352F14
:103B40004CC67DB0E4A9AC9F619B0C936A8FA387A0
:103B5000F082008014810080DD800080B1800080D0
:103B600088800080638000803F8001802180008009
:103B7000098003800080148000801F8000802480E2
:103B800000802780008026800080218000801C80AB
:103B9000008016800080108000800A8000800580F0
:103BA0000080018003800080058000800680018005
:103BB00008800080078000800680008006800080EA
:103BC00004800080028002800180048000800780E1
:103BD00000800A8000800C8000800E8000800F80B2
:103BE00001800F8001800E8000800B8000800680A5
:103BF000018000800A800180138000802180008085
:103C00002F8000803C8001804880008051800080AF
:103C100057800080568000804D8000803C8001806D
:103C2000F88207875D8AC78EE991A097919ABBA217
:103C300054A53CB399B42607E028B92E9819FC0A7C
:103C40004F2DC343253816209A21393C53490A4544
:103C50008D3241318A466252284A8537B23C4550FE
:103C60009053BC431A3AD84AF85546505446A64495
:103C70006E48B94EA6552C535D4C1C4EBE5458563A
:103C80007E5A705E275E4B5CE65E3E63CE65806862
:103C90004E6BE66C0F69E869B87115772672786B20
:103CA000806F2379E2783D754B6FE7757179A07964
:103CB000CB731375D1782E784F73237342780476C3
:103CC0001E73C56ABC6985683875C76CC45B994C3E
:103CD00058783E3BCFA1FC8F9A47463D4A89E58103
:103CE0004A92C0AB7E86258161820584F98200807C
:103CF000BE816E80268300804E810080A885D2839D
:103D00007182018063866A8E368D48857889D99460
:103D1000D1AD6FAA609FE19FA6DBCF2AC703EBCF8F
:103D2000A9110C4F87478B1B83277852E353B32885
:103D3000E707D3300C47EE2199D943CA64ECF8EA7F
:103D4000D4BD85AB32B6F2B639A5299EA5A7EEA79C
:103D5000B99D629A4EA1E4A49BA48EA4B1A75FACC6
:103D600015B271B3FEB677CDA0F982F9A5D422E6DB
:103D70006C2AB046A93E52365C3BF3493753BB57D9
:103D80003154A7549B56D454A24BA74EBC59EB595F
:103D90009A437C2D7641AF529A4549165B062C24F6
:103DA000F123B2037EE877E23DE1EAF348EAF2C7A5
:103DB00032C339E40DE80CC614C19ED1A1DA3FD359
:103DC0005DD181D7CCE5D4EB64E2CFE0D5F011FE34
:103DD0001B0A3B15FF10550B1118F81FEC23192A6D
:103DE000C3226900C101532B7C39FD161DE0D2E5C9
:103DF000CB15042F3AFDD9C588CA93FF85047BCE25
:103E0000F7C3EBD754D546BF0AC5F5DCBED7F7BC20
:103E1000E0B68AC6C3DB07DB5ACCE3C2D6C205DAFA
:103E200056F882E8BBCC35DD7802E2F734DE26FEB8
:103E3000551EEC0C46EF68057719B32CA73E3F4E94
:103E4000355B3D658E6C62714274AB752D76307654
:103E50001976107623761D769E7503747F700C6A32
:103E6000AC5F59509E3B8121D203ECE3FCC235A5E7
:103E7000A48E7D827F82EA8E5FA643C60BEBD010B4
:103E8000DB330F514B668872DE7553719F66C257E4
:103E9000CE4692358925A317770C3404E8FE71FCD1
:103EA000B5FC9AFF0805E30CF816EE223E303C3EC6
:103EB0001B4C04592964E16CB4726E751E750F7247
:103EC000C36CD965025EF3554D4EA9477242133F4C
:103ED000BD3D9F3EB641F046034E8256B55FA96890
:103EE0001F709F748674426E9560F24AFE2D0F0C0F
:103EF00089E8E8C45DA5478EE9812C81408B699EE5
:103F0000FDB740D569F34110052AC63F0951055E4A
:103F10001F67266DC570D472CB733C743374EE7317
:103F20000C737D71986E276A74635F5A784EEC3F0C
:103F3000C62EA51B1707FBF13ADD8AC9E3B77BA89C
:103F40000B9C1A92218B058637833481AE800080CA
:103F5000538013800D81DC81DA84D8889390E09AB5
:103F60005CAA7DBDEDD57AF19BFD2317C633B14C1C
:103F7000CC623E705975E06DBB5B153E3D1A94F303
:103F800099CEF2AC53940B853A80AE83448E2E9D2D
:103F9000CEAEFCC083D244E2A4EF52FA0C02FF067C
:103FA000FC085708DD04F6FE74F6DEEB2DDF29D1A0
:103FB0001BC2FFB270A47997C68C2F850C81AF808D
:103FC000EC83698A7593489EEEA984B541C074C993
:103FD000A9D079D5B6D734D7EDD3E0CD39C54BBA12
:103FE000BCAD74A0C1932989638216819A86C2935D
:103FF00092A832C4E0E41108B72AA249D76110712F
:10400000FB756E707961254B4730F11332F9A1E0F1
:10401000CFCAC9B8A7AA21A0A898AA93A490318F03
:104020001B8F5490F49230974D9DA1A556B096BD2C
:1040300029CDCDDE7DF1D30D47363D5BE074967F13
:10404000A97CB87063614B53AA49D945DF479E4E9E
:104050006B583163F46C707435799E7B2E7CE07AFA
:10406000C276B06D475D77437D207AF72CCEBCAA2F
:104070006991DF8301800282C4855E8877883D86EE
:104080000A838B8027803C822986578A198D108D60
:10409000028AF184A5802381E08ACAA0D7C2B1EB4D
:1040A00014143638C153AC65DB6F737464753673A2
:1040B000C16D5764FE569D464035A325271A8B14C3
:1040C00012162C1FAE2FB245C85D7B72707E6C7EBF
:1040D0008672015EE1450F2F331D5012E90EF11279
:1040E0006E1DE02CE93E1A510C611E6DFB74357992
:1040F000BE7A167ABD76326F6861064C0C2FA50C1D
:1041000010E99CC8B6AEA49C9691FD8B4E8ACD8BCF
:10411000CA902D9ACAA85EBC71D36BEB4901DB1221
:10412000741E4023E2204517900698EF9FD4F6B8FE
:104130007FA0718EF0832580AD8086827D83B682DC
:10414000DC800A80E0827F8BBD9A5BAF84C6CFDCC7
:104150001BEF64FBA0005EFED3F4D1E43BD077B943
:10416000E2A37F92018763810080898000819C8027
:104170000080468131873D941FA98BC408E39100DC
:10418000F019E12CBC38A13DEE3BE133BE256612AF
:104190006DFB5DE3F7CC46BABCAC9EA4C7A139A4C5
:1041A00080ACC0BB6ED266F1B817E03D2E5C2A70C1
:1041B000BF7AF17EF17FFF7FFD7F867F6E7D77780E
:1041C0000E70DB64B6581A4E82479D463F4CD4575A
:1041D0001867F0750B7FBF7D7C6F85551A345111C0
:1041E00001F24CD97DC824BF7FBCC2BF4FC855D592
:1041F00083E5FAF66907C6146C1D0E20D31BFB0F6E
:1042000088FCFCE126C3A9A4CC8CC7806F83739380
:10421000D3AB1EC6B5DCB9ECEBF4B5F5D5EFAFE426
:10422000EBD5DEC5EDB6F6AAF2A2599F5CA0E8A6D2
:1042300049B45CCAE3E8514B5C7AEF6624726C6760
:104240006B6E6A666F6B066599687563EA65BD613A
:104250005D63E75FDE60025E765E065C245CE959C2
:10426000ED59BD57CD577B55B8552A53B353D2504E
:10427000BB51694ECB4F014CE04D92490A4CD6469A
:104280004E4B9E3C89C433B9C8BF67BC60C1C3BE36
:1042900040C30AC125C554C30AC7A2C5EBC8F2C7AB
:1042A000D2CA3ECABBCC85CCAECEC6CEA7D0F9D042
:1042B000ABD21FD3C2D437D5E1D641D70BD942D91F
:1042C00048DB2CDB95DDFCDC07E097DEF4E2E2DE88
:1042D0001CED661D3F1BE21AA3196C18C1171716B7
:1042E000C115E013AC13B6118811930F620F790D4D
:1042F000330D630B020B5109CF0840079D062F05B4
:104300006D041A034402F60000000300F9FF0A00DE
:10431000F4FF0D00F1FF1000EFFF1200EEFF11009F
:10432000F0FF0F00F2FF0D00F5FF0A00F8FF070095
:10433000FAFF0300FFFFFFFF0500F7FFA400C30122
:10434000D202DF03F804FD051F071D084409390ADE
:10435000670B590C890D780EAA0F9810C911B81265
:10436000E413DA14FE15FD1614182319251A4B1B35
:10437000331C721D3E1E9D1F4A20C6215122EF2371
:104380005B2415266726342879284D2A912A5A2C31
:10439000B12C602EDF2E55301B3136326833083495
:1043A000C935BD3548384937F63A9C38F53D6E3940
:1043B000E0414B38604B740A5AB3B5C2ECB863BDE8
:1043C000AAB812BA6BB756B7D9B5E1B413B48EB266
:1043D00031B25DB038B045AE2BAE3CAC13AC43AAA5
:1043E000F5A94EA8CFA763A6A8A579A484A389A2FE
:1043F0006AA194A0589F969E4F9D8C9C579B769A3D
:104400006F994F9893972096C695E893FF93A29142
:104410006F929490C092639010934190599327901B
:104420008E931D90AF933F90A49387904F933191BB
:064430009A927F9248936E
:00000001FF
